:100000000EC029C027C026C025C024C023C022C0DE
:1000100021C020C045C01EC01DC01CC01BC0112473
:100020001FBECFE5D2E0DEBFCDBF10E0A0E6B0E05E
:10003000EEECFAE002C005900D92A83BB107D9F7AB
:1000400021E0A8EBB0E001C01D92A931B207E1F7B1
:1000500023D13BC5D5CF1F920F920FB60F9211241B
:100060008F939F938BB78F7B8BBF81E08093C5006D
:1000700098B3892788BB8FE692E00197F1F700C01B
:10008000000089B7806189BF8DEC89BD12BE80E414
:100090008ABF9F918F910F900FBE0F901F90189560
:1000A0001F920F920FB60F9211248F939F938091FE
:1000B000C5008130B9F58091BC009091BD000897D2
:1000C000E0F486B384708295880F807E8093BB00B5
:1000D0008091BA0086958093BA008091BB00909180
:1000E000BA00892B8093BA008091BC009091BD002A
:1000F00001969093BD008093BC008091BC009091CC
:10010000BD00089779F41092BD001092BC0089B729
:100110008F7E89BF8FE991E00197F1F700C0000061
:100120001092C5008091C500823099F58091BC0085
:100130009091BD000B97D0F48091B80080FF02C071
:10014000C19A01C0C1988091B8009091B90096956C
:1001500087959093B9008093B8008091BC009091EE
:10016000BD0001969093BD008093BC008091BC00BF
:100170009091BD000B9769F41092BD001092BC00E5
:100180001092B9001092B8001092C50089B78F7E06
:1001900089BF9F918F910F900FBE0F901F90189560
:1001A00092E09093C50090E0880F991F9E6F909306
:1001B000B9008093B80089B7806189BF8DEC89BD93
:1001C00012BE8091C5008230E1F380E48ABF0895B9
:1001D0008BB780648BBF8091C5008823E1F3809149
:1001E000C5008130E1F380E48ABF8091BA000895B0
:1001F000EEEBF0E085E390E02191822720E0E43C03
:10020000F207D1F7209112018227EAE0F1E0219173
:10021000822721E0E231F207D1F7E8ECF0E021910A
:10022000822720E0E03DF207D1F72091FC003091D9
:10023000FD0023273091FE0023273091FF00232764
:100240008227E3E1F1E02191822721E0E931F20701
:10025000D1F7E2E0F1E02191822721E0E830F207D6
:10026000D1F79C0144E0359527954A95E1F750E395
:10027000520F509308018F70992740E3480F409325
:1002800009015A3318F0295C209308014A3318F009
:10029000895C809309010895B99AB89A8AB58260F9
:1002A0008ABD83B7826083BF85B7826085BFC19AEC
:1002B000B29BFECF1092C500789400E610E080ED6E
:1002C000E82E80E0F82E84DF8432E9F781DF87347E
:1002D000D1F77EDF8035B9F77BDF8235A1F778DF94
:1002E0008D3489F775DF833471F772DF1092C700A0
:1002F0001092C600C091C600D091C700C630D1058B
:1003000074F466DFC254DF4F88838091C6009091F9
:10031000C70001969093C7008093C600EBCF58DFCB
:100320008C32E9F755DF8093120152DF51DF809361
:100330000A014EDF80930B014BDF80930C0148DFF5
:1003400080930D0145DF44DF80930E0141DF8093F0
:100350000F013EDF809310013BDF3ADF39DF8093EE
:10036000110136DF35DF34DF8093C80031DF809341
:10037000C9002EDF8093CA002BDF8093CB0028DFDB
:1003800027DF8093CC0024DF8093CD0021DF809392
:10039000CE001EDF1DDF1CDF8093CF0019DF18DFCA
:1003A0008C32E9F715DF8C32E9F712DF8093020116
:1003B0000FDF809303010CDF8093040109DF80933A
:1003C000050106DF8093060103DF8093070110DF3C
:1003D000809109011F928F93809108011F928F9342
:1003E000809107011F928F93809106011F928F9336
:1003F000809105011F928F93809104011F928F932A
:10040000809103011F928F93809102011F928F931D
:100410008091CF001F928F938091CE001F928F9377
:100420008091CD001F928F938091CC001F928F936B
:100430008091CB001F928F938091CA001F928F935F
:100440008091C9001F928F938091C8001F928F9353
:10045000809111011F928F93809110011F928F93B1
:1004600080910F011F928F9380910E011F928F93A5
:1004700080910D011F928F9380910C011F928F9399
:1004800080910B011F928F9380910A011F928F938D
:10049000809112011F928F938091C3001F928F93BE
:1004A0008091C2001F928F938091C1001F928F9301
:1004B0008091C0001F928F938091BF001F928F93F5
:1004C0008091BE001F928F931F930F93FF92EF9224
:1004D0002BD01092C7001092C6008DB79EB78E5BCE
:1004E0009F4F0FB6F8949EBF0FBE8DBF8091C60080
:1004F0009091C7008833910584F4FC01E053FF4FCD
:10050000808190E04DDE8091C6009091C7000196F9
:100510009093C7008093C600E9CF8DE090E040DE65
:100520008AE090E03DDECFCEAEE0B0E0E9E9F2E077
:10053000A3C20D891E8986E08C831A8309838FEFFD
:100540009FE79E838D83AE01475E5F4F6F89788DF5
:10055000CE01019609D02F813885F801E20FF31FF3
:1005600010822E96E4E0A4C2ACE0B0E0E9EBF2E049
:1005700075C27C016B018A01FC011782168283819E
:1005800081FFB0C1CE0101964C01F7019381F601C4
:1005900093FD859193FF81916F01882309F49EC19A
:1005A000853239F493FD859193FF81916F018532F6
:1005B00021F4B70190E0B1D1E8CF512C312C20E0EB
:1005C0002032A0F48B3269F030F4803259F083325B
:1005D00069F420612CC08D3239F0803339F4216008
:1005E00026C02260246023C0286021C027FD27C0C8
:1005F00030ED380F3A3078F426FF06C0852D6AE0DA
:1006000024D2582E530E13C0832D6AE01ED2382EEA
:10061000330E20620CC08E3221F426FD5FC12064AF
:1006200006C08C3611F4206802C0883641F4F60109
:1006300093FD859193FF81916F018111C1CF982F17
:100640009F7D9554933028F40C5F1F4FFFE3F9838F
:100650000DC0833631F0833771F0833509F057C010
:1006600021C0F801808189830E5F1F4F4424439489
:10067000512C540114C03801F2E06F0E711CF801C6
:10068000A080B18026FF03C0652D70E002C06FEF2F
:100690007FEFC5012C8736D12C0183012C852F7764
:1006A000222E16C03801F2E06F0E711CF801A080F6
:1006B000B18026FF03C0652D70E002C06FEF7FEFB1
:1006C000C5012C8714D12C012C852068222E830192
:1006D00023FC19C0832D90E048165906A0F4B701F9
:1006E00080E290E01AD13A94F5CFF50127FC85918C
:1006F00027FE81915F01B70190E00FD131103A944C
:10070000F1E04F1A51084114510479F7DEC08436E4
:1007100011F0893631F5F80127FF07C0608171813A
:10072000828193810C5F1F4F08C060817181072E09
:10073000000C880B990B0E5F1F4F2F76722E97FFC0
:1007400009C090958095709561957F4F8F4F9F4F11
:100750002068722E2AE030E0A40117D1A82EA81834
:1007600043C0853729F42F7EB22E2AE030E025C021
:10077000F22FF97FBF2E8F36C1F018F4883579F04B
:10078000ADC0803719F0883721F0A8C02F2F206125
:10079000B22EB4FE0DC08B2D8460B82E09C024FF8C
:1007A0000AC09F2F9660B92E06C028E030E005C031
:1007B00020E130E002C020E132E0F801B7FE07C0DE
:1007C00060817181828193810C5F1F4F06C06081BF
:1007D000718180E090E00E5F1F4FA401D6D0A82E5B
:1007E000A818FB2DFF777F2E76FE0BC0372D3E7F9E
:1007F000A51450F474FE0AC072FC08C0372D3E7E6A
:1008000005C0BA2C372D03C0BA2C01C0B52C34FF5B
:100810000DC0FE01EA0DF11D8081803311F4397E97
:1008200009C032FF06C0B394B39404C0832F867806
:1008300009F0B39433FD12C030FF06C05A2CB31434
:1008400018F4530C5B18B32CB31460F4B70180E2B6
:1008500090E03C8762D0B3943C85F6CFB31410F49B
:100860003B1801C0312C34FF11C0B70180E390E088
:100870003C8753D03C8532FF16C031FD03C088E76A
:1008800090E002C088E590E0B7010CC0832F867825
:1008900051F031FF02C08BE201C080E237FD8DE2F2
:1008A000B70190E03AD0A51430F4B70180E390E0AE
:1008B00034D05A94F8CFAA94F401EA0DF11D808146
:1008C000B70190E02AD0A110F6CF332009F45DCE15
:1008D000B70180E290E021D03A94F7CFF70186810A
:1008E000978102C08FEF9FEF2C96E2E1D3C0FC010D
:1008F0000590615070400110D8F7809590958E0F4B
:100900009F1F0895FC016150704001900110D8F7BD
:10091000809590958E0F9F1F08950F931F93CF93EF
:10092000DF93FB01238121FD03C08FEF9FEF28C0E0
:1009300022FF16C046815781248135814217530713
:1009400044F4A081B1819D012F5F3F4F318320830B
:100950008C93268137812F5F3F4F3783268310C0CA
:10096000EB01092F182F0084F185E02D0995892BC3
:10097000E1F68E819F8101969F838E83812F902F38
:10098000DF91CF911F910F910895FA01AA27283086
:1009900061F1203191F1E8946F936E7F6E5F7F4F2C
:1009A0008F4F9F4FAF4FB1E040D0B4E03ED0670FC4
:1009B000781F891F9A1FA11D680F791F8A1F911D1B
:1009C000A11D6A0F711D811D911DA11D22D009F469
:1009D00068943F91062E000C3019000C000C301961
:1009E000305D3193CEF6CF010895462F4770405DBC
:1009F0004193B3E00FD0C9F7F6CF462F4F70405D5B
:100A00004A3318F0495D31FD4052419302D0A9F7B5
:100A1000EACFB4E0A6959795879577956795BA95AF
:100A2000C9F700976105710508959B01AC010A2E75
:100A300006945795479537952795BA95C9F7620F4C
:100A4000731F841F951FA01D0895002480FD060EAE
:100A5000660F11F08695D1F7802D08952F923F9261
:100A60004F925F926F927F928F929F92AF92BF92BE
:100A7000CF92DF92EF92FF920F931F93CF93DF936A
:100A8000CDB7DEB7CA1BDB0B0FB6F894DEBF0FBEC7
:100A9000CDBF09942A88398848885F846E847D8414
:100AA0008C849B84AA84B984C884DF80EE80FD8016
:100AB0000C811B81AA81B981CE0FD11D0FB6F8948C
:0E0AC000DEBF0FBECDBFED010895F894FFCF4D
:100ACE00244750524D432C2563256325632563250A
:100ADE006325632C25632C25632563256325632EEF
:100AEE002563256325632C25632C3025632563251B
:100AFE006325632E2563256325632C25632C302CFB
:100B0E00302C2563256325632563256325632C2CF3
:080B1E002C4E2A25632563001B
:00000001FF
