:100000000EC029C027C026C025C024C023C022C0DE
:1000100021C020C042C01EC01DC01CC01BC0112476
:100020001FBECFE5D2E0DEBFCDBF10E0A0E6B0E05E
:10003000EAE7FCE002C005900D92A83EB107D9F7AF
:1000400021E0A8EEB0E001C01D92A434B207E1F7B0
:1000500024D111C6D5CF1F920F920FB60F92112443
:100060008F939F938BB78F7B8BBF81E08093F5003D
:100070008FE692E00197F1F700C0000089B7806138
:1000800089BF8DEC89BD12BE80E48ABF9F918F919C
:100090000F900FBE0F901F9018951F920F920FB6E2
:1000A0000F9211248F939F938091F5008130B9F5C1
:1000B0008091EC009091ED000897E0F486B3847095
:1000C0008295880F807E8093EB008091EA00869570
:1000D0008093EA008091EB009091EA00892B809355
:1000E000EA008091EC009091ED0001969093ED0074
:1000F0008093EC008091EC009091ED00089779F4EA
:100100001092ED001092EC0089B78F7E89BF8FE9C5
:1001100091E00197F1F700C000001092F500809186
:10012000F500823099F58091EC009091ED000B97ED
:10013000D0F48091E80080FF02C0C19A01C0C1984C
:100140008091E8009091E900969587959093E90059
:100150008093E8008091EC009091ED0001969093DF
:10016000ED008093EC008091EC009091ED000B97F6
:1001700069F41092ED001092EC001092E9001092D8
:10018000E8001092F50089B78F7E89BF9F918F910B
:100190000F900FBE0F901F90189592E09093F5006E
:1001A00090E0880F991F9E6F9093E9008093E8007C
:1001B00089B7806189BF8DEC89BD12BE8091F50041
:1001C0008230E1F380E48ABF08958BB780648BBFEF
:1001D0008091F5008823E1F38091F5008130E1F30F
:1001E00080E48ABF8091EA000895EEEEF0E085E3B6
:1001F00090E02191822720E0E43FF207D1F720919F
:1002000043018227E2E7F0E02191822720E0EA37EC
:10021000F207D1F7E9E6F0E02191822720E0E2370A
:10022000F207D1F720916300609164002627309196
:100230006500622F63275091660030916100209124
:100240006000232740916200322F3427262F232776
:1002500025278227EBE3F1E02191822721E0E13499
:10026000F207D1F79C0144E0359527954A95E1F7CF
:1002700050E3520F509341018F70992740E3480F8C
:10028000409342015A3318F0295C209341014A33CC
:1002900018F0895C809342010895B99A8AB582600A
:1002A0008ABD83B7826083BF85B7826085BFC19AEC
:1002B000B29BFECF1092F500789480E3982E90E3E5
:1002C000892EC3E0D0E024E0C22ED12C32E0A32E50
:1002D000B12C0AE710E048EFE42E40E0F42E75DF81
:1002E0008432E9F772DF8734D1F76FDF8035B9F7F1
:1002F0006CDF8235A1F769DF8D3489F766DF8334DF
:1003000071F763DF1092F6007090F60085E08715B4
:1003100060F05BDFE72DF0E0E251FF4F80838091DA
:10032000F6008F5F8093F600EFCF4FDF8C32E9F756
:100330004CDF8093430149DF48DF8093720045DF43
:100340008093730042DF809374003FDF80937500D9
:100350003CDF3BDF80937600809172008C3251F459
:1003600080E0E82FF0E0EE58FF4F90828F5F8530FD
:10037000C1F7D3C02ADF8093770027DF809378000E
:1003800024DF23DF22DF809379001FDF1EDF8093CD
:1003900069001BDF80936A0018DF80936B0015DF14
:1003A00080936C0012DF80936D000FDF0EDF80936F
:1003B0006E000BDF80936F0008DF8093700005DF15
:1003C00004DF03DF8093710000DF80E0E82FF0E0BE
:1003D000ED59FF4F90828F5F8630C1F71092F70082
:1003E0001092F600F2DE8E32C9F08091F600909104
:1003F000EA00E82FF0E0ED59FF4F90839091F7006D
:100400009F5F9093F7008F5F8093F6008091630069
:100410008C3241F780926300D8DE81C0D6DE8093B3
:100420006700D3DE80936800D0DE9091F700492FFB
:1004300050E080E0282F30E0FA01E21BF30BEE5988
:10044000FF4F6081FE01E21BF30BED59FF4F60830C
:100450008F5F843079F7943011F480E00FC020E092
:10046000A601491B5109822F90E02F5F8417950741
:10047000A4F7FC01ED59FF4F9082F5CFE82FF0E093
:10048000E05AFF4F90828F5F8330C1F71092F700E0
:100490001092F6009ADE8E3291F08091F6009091E3
:1004A000EA00E82FF0E0E05AFF4F90839091F700C8
:1004B0009F5F9093F7008F5F8093F600EBCF85DE10
:1004C0008C32E9F79091F700492F50E080E0282F17
:1004D00030E0FA01E21BF30BE15AFF4F6081F501B6
:1004E000E21BF30BE05AFF4F60838F5F833079F795
:1004F0008093F600943099F080E0AE01491B5109D9
:10050000282F30E091E0980F2417350734F4F901D3
:10051000E05AFF4F9082892FF3CF8093F60055DE8B
:1005200080933B0152DE80933C014FDE80933D017E
:100530004CDE80933E0149DE80933F0146DE80938E
:10054000400153DE809142011F928F9380914101BF
:100550001F928F93809140011F928F9380913F0152
:100560001F928F9380913E011F928F9380913D0146
:100570001F928F9380913C011F928F9380913B013A
:100580001F928F93809162001F928F9380916100E0
:100590001F928F93809160001F928F9380916800CB
:1005A0001F928F93809167001F928F9380916600B6
:1005B0001F928F93809165001F928F9380916400AA
:1005C0001F928F93809163001F928F93809171008F
:1005D0001F928F93809170001F928F9380916F0074
:1005E0001F928F9380916E001F928F9380916D0068
:1005F0001F928F9380916C001F928F9380916B005C
:100600001F928F9380916A001F928F93809169004F
:100610001F928F93809179001F928F938091780021
:100620001F928F93809177001F928F938091760015
:100630001F928F93809175001F928F938091740009
:100640001F928F93809173001F928F9380917200FD
:100650001F928F93809143011F928F938091F3009B
:100660001F928F938091F2001F928F938091F100DF
:100670001F928F938091F0001F928F938091EF00D3
:100680001F928F938091EE001F928F931F930F9371
:10069000FF92EF921FD01092F6008DB79EB78A5A44
:1006A0009F4F0FB6F8949EBF0FBE8DBFE091F6002E
:1006B000E33458F4F0E0E850FF4F80816EDD809124
:1006C000F6008F5F8093F600F1CF8DE066DD8AE063
:1006D00064DD05CEAEE0B0E0EFE6F3E0A3C20D8945
:1006E0001E8986E08C831A8309838FEF9FE79E83A0
:1006F0008D83AE01475E5F4F6F89788DCE01019685
:1007000009D02F813885F801E20FF31F10822E9651
:10071000E4E0A4C2ACE0B0E0EFE8F3E075C27C0135
:100720006B018A01FC0117821682838181FFB0C1AF
:10073000CE0101964C01F7019381F60193FD85915D
:1007400093FF81916F01882309F49EC1853239F4AA
:1007500093FD859193FF81916F01853221F4B7015B
:1007600090E0B1D1E8CF512C312C20E02032A0F420
:100770008B3269F030F4803259F0833269F42061B1
:100780002CC08D3239F0803339F4216026C02260CC
:10079000246023C0286021C027FD27C030ED380F1A
:1007A0003A3078F426FF06C0852D6AE024D2582E10
:1007B000530E13C0832D6AE01ED2382E330E2062F2
:1007C0000CC08E3221F426FD5FC1206406C08C3639
:1007D00011F4206802C0883641F4F60193FD85913A
:1007E00093FF81916F018111C1CF982F9F7D955407
:1007F000933028F40C5F1F4FFFE3F9830DC083365D
:1008000031F0833771F0833509F057C021C0F8010A
:10081000808189830E5F1F4F44244394512C5401DF
:1008200014C03801F2E06F0E711CF801A080B18095
:1008300026FF03C0652D70E002C06FEF7FEFC5019A
:100840002C8736D12C0183012C852F77222E16C0C0
:100850003801F2E06F0E711CF801A080B18026FF14
:1008600003C0652D70E002C06FEF7FEFC5012C87DC
:1008700014D12C012C852068222E830123FC19C061
:10088000832D90E048165906A0F4B70180E290E06D
:100890001AD13A94F5CFF50127FC859127FE819175
:1008A0005F01B70190E00FD131103A94F1E04F1A97
:1008B00051084114510479F7DEC0843611F08936AD
:1008C00031F5F80127FF07C0608171818281938132
:1008D0000C5F1F4F08C060817181072E000C880BD0
:1008E000990B0E5F1F4F2F76722E97FF09C09095C0
:1008F0008095709561957F4F8F4F9F4F2068722E26
:100900002AE030E0A40117D1A82EA81843C08537EB
:1009100029F42F7EB22E2AE030E025C0F22FF97F95
:10092000BF2E8F36C1F018F4883579F0ADC080370E
:1009300019F0883721F0A8C02F2F2061B22EB4FE05
:100940000DC08B2D8460B82E09C024FF0AC09F2FD4
:100950009660B92E06C028E030E005C020E130E006
:1009600002C020E132E0F801B7FE07C0608171816A
:10097000828193810C5F1F4F06C06081718180E08E
:1009800090E00E5F1F4FA401D6D0A82EA818FB2D13
:10099000FF777F2E76FE0BC0372D3E7FA51450F4D7
:1009A00074FE0AC072FC08C0372D3E7E05C0BA2C0A
:1009B000372D03C0BA2C01C0B52C34FF0DC0FE0189
:1009C000EA0DF11D8081803311F4397E09C032FFB8
:1009D00006C0B394B39404C0832F867809F0B3940F
:1009E00033FD12C030FF06C05A2CB31418F4530C58
:1009F0005B18B32CB31460F4B70180E290E03C873D
:100A000062D0B3943C85F6CFB31410F43B1801C008
:100A1000312C34FF11C0B70180E390E03C8753D004
:100A20003C8532FF16C031FD03C088E790E002C06C
:100A300088E590E0B7010CC0832F867851F031FF34
:100A400002C08BE201C080E237FD8DE2B70190E089
:100A50003AD0A51430F4B70180E390E034D05A9432
:100A6000F8CFAA94F401EA0DF11D8081B70190E05E
:100A70002AD0A110F6CF332009F45DCEB70180E271
:100A800090E021D03A94F7CFF7018681978102C098
:100A90008FEF9FEF2C96E2E1D3C0FC0105906150EF
:100AA00070400110D8F7809590958E0F9F1F089584
:100AB000FC016150704001900110D8F7809590952D
:100AC0008E0F9F1F08950F931F93CF93DF93FB010A
:100AD000238121FD03C08FEF9FEF28C022FF16C0A6
:100AE00046815781248135814217530744F4A08100
:100AF000B1819D012F5F3F4F318320838C932681ED
:100B000037812F5F3F4F3783268310C0EB01092FBA
:100B1000182F0084F185E02D0995892BE1F68E814F
:100B20009F8101969F838E83812F902FDF91CF919C
:100B30001F910F910895FA01AA27283061F1203101
:100B400091F1E8946F936E7F6E5F7F4F8F4F9F4F51
:100B5000AF4FB1E040D0B4E03ED0670F781F891F9F
:100B60009A1FA11D680F791F8A1F911DA11D6A0F71
:100B7000711D811D911DA11D22D009F468943F9122
:100B8000062E000C3019000C000C3019305D31932A
:100B9000CEF6CF010895462F4770405D4193B3E0F4
:100BA0000FD0C9F7F6CF462F4F70405D4A3318F08B
:100BB000495D31FD4052419302D0A9F7EACFB4E03C
:100BC000A6959795879577956795BA95C9F70097F4
:100BD0006105710508959B01AC010A2E0694579595
:100BE000479537952795BA95C9F7620F731F841FEC
:100BF000951FA01D0895002480FD060E660F11F0BC
:100C00008695D1F7802D08952F923F924F925F9253
:100C10006F927F928F929F92AF92BF92CF92DF920C
:100C2000EF92FF920F931F93CF93DF93CDB7DEB771
:100C3000CA1BDB0B0FB6F894DEBF0FBECDBF099405
:100C40002A88398848885F846E847D848C849B845C
:100C5000AA84B984C884DF80EE80FD800C811B816A
:100C6000AA81B981CE0FD11D0FB6F894DEBF0FBE99
:0A0C7000CDBFED010895F894FFCF09
:100C7A00303030303030303030303030303030306A
:100C8A003045303030303030304E244750524D43AA
:100C9A002C2563256325632563256325632C25633A
:100CAA002C25632563256325632E25632563256328
:100CBA002C25632C256325632563256325632E254F
:100CCA0063256325632C25632C256325632563250A
:100CDA00632E256325632C2563256325632E303017
:100CEA002C2563256325632563256325632C2C2C1A
:080CFA004E2A2563256300006A
:00000001FF
